{
  "_format": "hh-sol-artifact-1",
  "contractName": "Tornado",
  "sourceName": "contracts/Tornado.sol",
  "abi": [
    {
      "inputs": [
        {
          "internalType": "address",
          "name": "spongeContractAddress",
          "type": "address"
        }
      ],
      "stateMutability": "nonpayable",
      "type": "constructor"
    },
    {
      "inputs": [],
      "name": "ReentrancyGuardReentrantCall",
      "type": "error"
    },
    {
      "anonymous": false,
      "inputs": [
        {
          "indexed": false,
          "internalType": "uint256[10]",
          "name": "hashDirections",
          "type": "uint256[10]"
        },
        {
          "indexed": false,
          "internalType": "uint256[10]",
          "name": "hashPairings",
          "type": "uint256[10]"
        },
        {
          "indexed": false,
          "internalType": "uint256",
          "name": "rootHash",
          "type": "uint256"
        }
      ],
      "name": "Deposit",
      "type": "event"
    },
    {
      "inputs": [
        {
          "internalType": "uint256",
          "name": "commitmentHash",
          "type": "uint256"
        }
      ],
      "name": "deposit",
      "outputs": [],
      "stateMutability": "payable",
      "type": "function"
    },
    {
      "inputs": [],
      "name": "withdraw",
      "outputs": [],
      "stateMutability": "nonpayable",
      "type": "function"
    }
  ],
  "bytecode": "0x6080604052600a600160146101000a81548160ff021916908360ff1602179055506040518061014001604052807f33418cd1669b4e7f4bf473ec2db9a489b3d6f9f11b91d0b3b6004432ab53d60b81526020017f350ffb7c45ccf8940c163b192252495b614def57272b6f8d9a53a5b3e44ef8bd81526020017fc8acb7af851baf91a82b1ad46b01ac506ce80387170890dea377d21e8520258481526020017f5171d273154b2764aa5903210e16bd1899b18648d1358d41887a113227e9acc581526020017f986c06cb04d613f57cf7a1da410e0f22c794e1ec1ae125898cfc9662a5e5be5981526020017f6eb9a05106eff3031621027680204b2e9326b0e5191bd62f3cd7bf7f6d94d02781526020017fa1cbc8691493398c061f547b4882edbb6a38ce1730c8a2605e9d8138d4ad122681526020017f850aa72f3d8bc65181e9c29d76f7614e2f939ade9442abac29fc8a0329deeffd81526020017fe9c6f678752dbfc89028bf8b9b1cce608b34b742b75fbae878ec2c6ae803dc1e81526020017fa9e22c2e1f4531bc4389032bb472b97c25a7298d27ba4fefd75439a1be46f77f815250600590600a620001b89291906200023c565b50348015620001c657600080fd5b5060405162000f8038038062000f808339818101604052810190620001ec91906200030a565b600160008190555080600160006101000a81548173ffffffffffffffffffffffffffffffffffffffff021916908373ffffffffffffffffffffffffffffffffffffffff160217905550506200033c565b82600a81019282156200026e579160200282015b828111156200026d57825182559160200191906001019062000250565b5b5090506200027d919062000281565b5090565b5b808211156200029c57600081600090555060010162000282565b5090565b600080fd5b600073ffffffffffffffffffffffffffffffffffffffff82169050919050565b6000620002d282620002a5565b9050919050565b620002e481620002c5565b8114620002f057600080fd5b50565b6000815190506200030481620002d9565b92915050565b600060208284031215620003235762000322620002a0565b5b60006200033384828501620002f3565b91505092915050565b610c34806200034c6000396000f3fe6080604052600436106100295760003560e01c80633ccfd60b1461002e578063b6b55f2514610045575b600080fd5b34801561003a57600080fd5b50610043610061565b005b61005f600480360381019061005a9190610576565b610073565b005b6100696104a6565b6100716104ec565b565b61007b6104a6565b60006100856104f6565b61008d6104f6565b600080610098610519565b60008790506000879050600034116100e5576040517f08c379a00000000000000000000000000000000000000000000000000000000081526004016100dc90610626565b60405180910390fd5b600160149054906101000a900460ff16600261010191906107b5565b8810610142576040517f08c379a000000000000000000000000000000000000000000000000000000000815260040161013990610872565b60405180910390fd5b600260008a815260200190815260200160002060009054906101000a900460ff16156101a3576040517f08c379a000000000000000000000000000000000000000000000000000000000815260040161019a906108de565b60405180910390fd5b60005b600160149054906101000a900460ff1660ff168160ff1610156103ea5760006002836101d2919061092d565b036102535782955060058160ff16600a81106101f1576101f061095e565b5b015494506000888260ff16600a811061020d5761020c61095e565b5b60200201818152505060058160ff16600a811061022d5761022c61095e565b5b0154878260ff16600a81106102455761024461095e565b5b6020020181815250506102c9565b60058160ff16600a811061026a5761026961095e565b5b015495508294506001888260ff16600a81106102895761028861095e565b5b602002018181525050600460008260ff16815260200190815260200160002054878260ff16600a81106102bf576102be61095e565b5b6020020181815250505b82600460008360ff1681526020019081526020016000208190555085846000600281106102f9576102f861095e565b5b60200201818152505084846001600281106103175761031661095e565b5b6020020181815250506000600160009054906101000a900473ffffffffffffffffffffffffffffffffffffffff1673ffffffffffffffffffffffffffffffffffffffff16632309e70e868d6040518363ffffffff1660e01b815260040161037f929190610a47565b6020604051808303816000875af115801561039e573d6000803e3d6000fd5b505050506040513d601f19601f820116820180604052508101906103c29190610a85565b90508093506002836103d49190610ab2565b92505080806103e290610ae3565b9150506101a6565b50600082905060016003600083815260200190815260200160002060006101000a81548160ff0219169083151502179055506001896104299190610b0c565b98506001600260008c815260200190815260200160002060006101000a81548160ff0219169083151502179055507f684c5d32cc4fb308f6be89e29ddbe359614eb29ae0d9124631376501728c944c88888360405161048a93929190610bc4565b60405180910390a15050505050505050506104a36104ec565b50565b6002600054036104e2576040517f3ee5aeb500000000000000000000000000000000000000000000000000000000815260040160405180910390fd5b6002600081905550565b6001600081905550565b604051806101400160405280600a90602082028036833780820191505090505090565b6040518060400160405280600290602082028036833780820191505090505090565b600080fd5b6000819050919050565b61055381610540565b811461055e57600080fd5b50565b6000813590506105708161054a565b92915050565b60006020828403121561058c5761058b61053b565b5b600061059a84828501610561565b91505092915050565b600082825260208201905092915050565b7f796f75206e65656420746f206465706f736974206d6f7265207468616e20302060008201527f6574680000000000000000000000000000000000000000000000000000000000602082015250565b60006106106023836105a3565b915061061b826105b4565b604082019050919050565b6000602082019050818103600083015261063f81610603565b9050919050565b7f4e487b7100000000000000000000000000000000000000000000000000000000600052601160045260246000fd5b60008160011c9050919050565b6000808291508390505b60018511156106cc578086048111156106a8576106a7610646565b5b60018516156106b75780820291505b80810290506106c585610675565b945061068c565b94509492505050565b6000826106e557600190506107a1565b816106f357600090506107a1565b8160018114610709576002811461071357610742565b60019150506107a1565b60ff84111561072557610724610646565b5b8360020a91508482111561073c5761073b610646565b5b506107a1565b5060208310610133831016604e8410600b84101617156107775782820a90508381111561077257610771610646565b5b6107a1565b6107848484846001610682565b9250905081840481111561079b5761079a610646565b5b81810290505b9392505050565b600060ff82169050919050565b60006107c082610540565b91506107cb836107a8565b92506107f87fffffffffffffffffffffffffffffffffffffffffffffffffffffffffffffffff84846106d5565b905092915050565b7f747265652069732066756c6c2063616e6e6f74206d616b652061206465706f7360008201527f6974000000000000000000000000000000000000000000000000000000000000602082015250565b600061085c6022836105a3565b915061086782610800565b604082019050919050565b6000602082019050818103600083015261088b8161084f565b9050919050565b7f6475706c69636174657320617265206e6f7420616c6c6f776564200000000000600082015250565b60006108c8601b836105a3565b91506108d382610892565b602082019050919050565b600060208201905081810360008301526108f7816108bb565b9050919050565b7f4e487b7100000000000000000000000000000000000000000000000000000000600052601260045260246000fd5b600061093882610540565b915061094383610540565b925082610953576109526108fe565b5b828206905092915050565b7f4e487b7100000000000000000000000000000000000000000000000000000000600052603260045260246000fd5b600060029050919050565b600081905092915050565b6000819050919050565b6109b681610540565b82525050565b60006109c883836109ad565b60208301905092915050565b6000602082019050919050565b6109ea8161098d565b6109f48184610998565b92506109ff826109a3565b8060005b83811015610a30578151610a1787826109bc565b9650610a22836109d4565b925050600181019050610a03565b505050505050565b610a4181610540565b82525050565b6000606082019050610a5c60008301856109e1565b610a696040830184610a38565b9392505050565b600081519050610a7f8161054a565b92915050565b600060208284031215610a9b57610a9a61053b565b5b6000610aa984828501610a70565b91505092915050565b6000610abd82610540565b9150610ac883610540565b925082610ad857610ad76108fe565b5b828204905092915050565b6000610aee826107a8565b915060ff8203610b0157610b00610646565b5b600182019050919050565b6000610b1782610540565b9150610b2283610540565b9250828201905080821115610b3a57610b39610646565b5b92915050565b6000600a9050919050565b600081905092915050565b6000819050919050565b6000602082019050919050565b610b7681610b40565b610b808184610b4b565b9250610b8b82610b56565b8060005b83811015610bbc578151610ba387826109bc565b9650610bae83610b60565b925050600181019050610b8f565b505050505050565b60006102a082019050610bda6000830186610b6d565b610be8610140830185610b6d565b610bf6610280830184610a38565b94935050505056fea2646970667358221220fc21f9842ffede938128959ff3028307ec1f864a032ce27fbb7bb7fe24c1270664736f6c63430008110033",
  "linkReferences": {},
  "deployedLinkReferences": {}
}